{
  "contractName": "mortgage",
  "abi": [
    {
      "constant": true,
      "inputs": [
        {
          "name": "",
          "type": "address"
        }
      ],
      "name": "balances",
      "outputs": [
        {
          "name": "",
          "type": "uint256"
        }
      ],
      "payable": false,
      "stateMutability": "view",
      "type": "function",
      "signature": "0x27e235e3"
    },
    {
      "anonymous": false,
      "inputs": [
        {
          "indexed": false,
          "name": "_owner",
          "type": "address"
        }
      ],
      "name": "LienReleased",
      "type": "event",
      "signature": "0x54baa8a225591732bfb03c9611a550b0662f3668a2e316cf99467ec5efe1ddb0"
    },
    {
      "anonymous": false,
      "inputs": [
        {
          "indexed": false,
          "name": "_owner",
          "type": "address"
        }
      ],
      "name": "LienTrasferred",
      "type": "event",
      "signature": "0xf5b202ad34aad00c0fabc445b20216181da94cc429e2e8f1204a7abdabea0091"
    },
    {
      "anonymous": false,
      "inputs": [
        {
          "indexed": false,
          "name": "_status",
          "type": "int256"
        }
      ],
      "name": "LoanStatus",
      "type": "event",
      "signature": "0x9199c2204168edea815389607e935fbabac15bd002ff8a7db78fe8056075afb1"
    },
    {
      "constant": false,
      "inputs": [],
      "name": "Mortgage",
      "outputs": [],
      "payable": false,
      "stateMutability": "nonpayable",
      "type": "function",
      "signature": "0xfb5d0c65"
    },
    {
      "constant": false,
      "inputs": [
        {
          "name": "receiver",
          "type": "address"
        },
        {
          "name": "amount",
          "type": "uint256"
        }
      ],
      "name": "deposit",
      "outputs": [
        {
          "name": "",
          "type": "uint256"
        }
      ],
      "payable": false,
      "stateMutability": "nonpayable",
      "type": "function",
      "signature": "0x47e7ef24"
    },
    {
      "constant": false,
      "inputs": [],
      "name": "checkMortgagePayoff",
      "outputs": [],
      "payable": false,
      "stateMutability": "nonpayable",
      "type": "function",
      "signature": "0x5cc8e54e"
    },
    {
      "constant": false,
      "inputs": [
        {
          "name": "_addressOfProperty",
          "type": "bytes32"
        },
        {
          "name": "_purchasePrice",
          "type": "uint32"
        },
        {
          "name": "_term",
          "type": "uint32"
        },
        {
          "name": "_interest",
          "type": "uint32"
        },
        {
          "name": "_loanAmount",
          "type": "uint32"
        },
        {
          "name": "_annualTax",
          "type": "uint32"
        },
        {
          "name": "_annualInsurance",
          "type": "uint32"
        },
        {
          "name": "_monthlyPi",
          "type": "uint32"
        },
        {
          "name": "_monthlyTax",
          "type": "uint32"
        },
        {
          "name": "_monthlyInsurance",
          "type": "uint32"
        },
        {
          "name": "_mortgageHolder",
          "type": "address"
        },
        {
          "name": "_insurer",
          "type": "address"
        },
        {
          "name": "_irs",
          "type": "address"
        }
      ],
      "name": "submitLoan",
      "outputs": [],
      "payable": false,
      "stateMutability": "nonpayable",
      "type": "function",
      "signature": "0xf14b7e0c"
    },
    {
      "constant": true,
      "inputs": [],
      "name": "getLoanData",
      "outputs": [
        {
          "name": "_addressOfProperty",
          "type": "bytes32"
        },
        {
          "name": "_purchasePrice",
          "type": "uint32"
        },
        {
          "name": "_term",
          "type": "uint32"
        },
        {
          "name": "_interest",
          "type": "uint32"
        },
        {
          "name": "_loanAmount",
          "type": "uint32"
        },
        {
          "name": "_annualTax",
          "type": "uint32"
        },
        {
          "name": "_annualInsurance",
          "type": "uint32"
        },
        {
          "name": "_status",
          "type": "int256"
        },
        {
          "name": "_monthlyPi",
          "type": "uint32"
        },
        {
          "name": "_monthlyTax",
          "type": "uint32"
        },
        {
          "name": "_monthlyInsurance",
          "type": "uint32"
        }
      ],
      "payable": false,
      "stateMutability": "view",
      "type": "function",
      "signature": "0xa3f14e96"
    },
    {
      "constant": false,
      "inputs": [
        {
          "name": "_status",
          "type": "int256"
        }
      ],
      "name": "approveRejectLoan",
      "outputs": [],
      "payable": false,
      "stateMutability": "nonpayable",
      "type": "function",
      "signature": "0x93840708"
    }
  ],
  "bytecode": "0x608060405234801561001057600080fd5b50610e42806100206000396000f3fe608060405260043610610083576000357c0100000000000000000000000000000000000000000000000000000000900463ffffffff16806327e235e31461008857806347e7ef24146100ed5780635cc8e54e1461015c5780639384070814610173578063a3f14e96146101ae578063f14b7e0c1461028b578063fb5d0c65146103b7575b600080fd5b34801561009457600080fd5b506100d7600480360360208110156100ab57600080fd5b81019080803573ffffffffffffffffffffffffffffffffffffffff1690602001909291905050506103ce565b6040518082815260200191505060405180910390f35b3480156100f957600080fd5b506101466004803603604081101561011057600080fd5b81019080803573ffffffffffffffffffffffffffffffffffffffff169060200190929190803590602001909291905050506103e6565b6040518082815260200191505060405180910390f35b34801561016857600080fd5b5061017161051b565b005b34801561017f57600080fd5b506101ac6004803603602081101561019657600080fd5b8101908080359060200190929190505050610813565b005b3480156101ba57600080fd5b506101c3610a01565b604051808c81526020018b63ffffffff1663ffffffff1681526020018a63ffffffff1663ffffffff1681526020018963ffffffff1663ffffffff1681526020018863ffffffff1663ffffffff1681526020018763ffffffff1663ffffffff1681526020018663ffffffff1663ffffffff1681526020018581526020018463ffffffff1663ffffffff1681526020018363ffffffff1663ffffffff1681526020018263ffffffff1663ffffffff1681526020019b50505050505050505050505060405180910390f35b34801561029757600080fd5b506103b560048036036101a08110156102af57600080fd5b8101908080359060200190929190803563ffffffff169060200190929190803563ffffffff169060200190929190803563ffffffff169060200190929190803563ffffffff169060200190929190803563ffffffff169060200190929190803563ffffffff169060200190929190803563ffffffff169060200190929190803563ffffffff169060200190929190803563ffffffff169060200190929190803573ffffffffffffffffffffffffffffffffffffffff169060200190929190803573ffffffffffffffffffffffffffffffffffffffff169060200190929190803573ffffffffffffffffffffffffffffffffffffffff169060200190929190505050610b23565b005b3480156103c357600080fd5b506103cc610d7b565b005b60106020528060005260406000206000915090505481565b600081601060003373ffffffffffffffffffffffffffffffffffffffff1673ffffffffffffffffffffffffffffffffffffffff1681526020019081526020016000205410156104385760009050610515565b81601060003373ffffffffffffffffffffffffffffffffffffffff1673ffffffffffffffffffffffffffffffffffffffff1681526020019081526020016000206000828254039250508190555081601060008573ffffffffffffffffffffffffffffffffffffffff1673ffffffffffffffffffffffffffffffffffffffff16815260200190815260200160002060008282540192505081905550601060008473ffffffffffffffffffffffffffffffffffffffff1673ffffffffffffffffffffffffffffffffffffffff1681526020019081526020016000205490505b92915050565b600160000160000160009054906101000a900463ffffffff16600c600160030160000160009054906101000a900463ffffffff16020263ffffffff1660106000600160040160000160009054906101000a900473ffffffffffffffffffffffffffffffffffffffff1673ffffffffffffffffffffffffffffffffffffffff1673ffffffffffffffffffffffffffffffffffffffff1681526020019081526020016000205414801561066d5750600160000160000160009054906101000a900463ffffffff16600c600160030160000160049054906101000a900463ffffffff16020263ffffffff1660106000600160040160010160009054906101000a900473ffffffffffffffffffffffffffffffffffffffff1673ffffffffffffffffffffffffffffffffffffffff1673ffffffffffffffffffffffffffffffffffffffff16815260200190815260200160002054145b801561071a5750600160000160000160009054906101000a900463ffffffff16600c600160030160000160089054906101000a900463ffffffff16020263ffffffff1660106000600160040160020160009054906101000a900473ffffffffffffffffffffffffffffffffffffffff1673ffffffffffffffffffffffffffffffffffffffff1673ffffffffffffffffffffffffffffffffffffffff16815260200190815260200160002054145b15610811576000809054906101000a900473ffffffffffffffffffffffffffffffffffffffff166001800160010160046101000a81548173ffffffffffffffffffffffffffffffffffffffff021916908373ffffffffffffffffffffffffffffffffffffffff1602179055507f54baa8a225591732bfb03c9611a550b0662f3668a2e316cf99467ec5efe1ddb06001800160010160049054906101000a900473ffffffffffffffffffffffffffffffffffffffff16604051808273ffffffffffffffffffffffffffffffffffffffff1673ffffffffffffffffffffffffffffffffffffffff16815260200191505060405180910390a15b565b600160040160000160009054906101000a900473ffffffffffffffffffffffffffffffffffffffff1673ffffffffffffffffffffffffffffffffffffffff163373ffffffffffffffffffffffffffffffffffffffff161415156108de576040517f08c379a00000000000000000000000000000000000000000000000000000000081526004018080602001828103825260038152602001807f6c6f6c000000000000000000000000000000000000000000000000000000000081525060200191505060405180910390fd5b8060016007018190555060028114156109c257336001800160010160046101000a81548173ffffffffffffffffffffffffffffffffffffffff021916908373ffffffffffffffffffffffffffffffffffffffff1602179055507ff5b202ad34aad00c0fabc445b20216181da94cc429e2e8f1204a7abdabea00916001800160010160049054906101000a900473ffffffffffffffffffffffffffffffffffffffff16604051808273ffffffffffffffffffffffffffffffffffffffff1673ffffffffffffffffffffffffffffffffffffffff16815260200191505060405180910390a15b7f9199c2204168edea815389607e935fbabac15bd002ff8a7db78fe8056075afb16001600701546040518082815260200191505060405180910390a150565b600080600080600080600080600080600060018001600001549a506001800160010160009054906101000a900463ffffffff169950600160000160000160009054906101000a900463ffffffff169850600160000160000160049054906101000a900463ffffffff169750600160000160000160089054906101000a900463ffffffff1696506001600001600001600c9054906101000a900463ffffffff169550600160000160000160109054906101000a900463ffffffff169450600160030160000160009054906101000a900463ffffffff169250600160030160000160049054906101000a900463ffffffff169150600160030160000160089054906101000a900463ffffffff1690506001600701549350909192939495969798999a565b8c60018001600001819055508b6001800160010160006101000a81548163ffffffff021916908363ffffffff1602179055508a600160000160000160006101000a81548163ffffffff021916908363ffffffff16021790555089600160000160000160046101000a81548163ffffffff021916908363ffffffff16021790555088600160000160000160086101000a81548163ffffffff021916908363ffffffff160217905550876001600001600001600c6101000a81548163ffffffff021916908363ffffffff16021790555086600160000160000160106101000a81548163ffffffff021916908363ffffffff16021790555085600160030160000160006101000a81548163ffffffff021916908363ffffffff16021790555084600160030160000160046101000a81548163ffffffff021916908363ffffffff16021790555083600160030160000160086101000a81548163ffffffff021916908363ffffffff16021790555082600160040160000160006101000a81548173ffffffffffffffffffffffffffffffffffffffff021916908373ffffffffffffffffffffffffffffffffffffffff16021790555081600160040160010160006101000a81548173ffffffffffffffffffffffffffffffffffffffff021916908373ffffffffffffffffffffffffffffffffffffffff16021790555080600160040160020160006101000a81548173ffffffffffffffffffffffffffffffffffffffff021916908373ffffffffffffffffffffffffffffffffffffffff1602179055506001806007018190555050505050505050505050505050565b336000806101000a81548173ffffffffffffffffffffffffffffffffffffffff021916908373ffffffffffffffffffffffffffffffffffffffff160217905550600060016007018190555069152d02c7e14af6800000601060003373ffffffffffffffffffffffffffffffffffffffff1673ffffffffffffffffffffffffffffffffffffffff1681526020019081526020016000208190555056fea165627a7a7230582042610d2431ee625ccdc8da282ed12179aeb3d803fcff7e635c6b405fb40c54830029",
  "source": "pragma solidity ^0.5.0;\n\ncontract mortgage{\n    /* constructor will be used to deploy the smart contract on blockchain.\n    Setting initial account balance to 1000000 and loan status to 'Initiated'.\n    Also, at the moment the support for doubles and floats in Solidity is rather weak so might\n    have to stick with float.\n    */\n\n    // Declaring all the necessary\n    int constant STATUS_INITIATED = 0;\n    int constant STATUS_SUBMITTED = 1;\n    int constant STATUS_APPROVED  = 2;\n    int constant STATUS_REJECTED  = 3;\n\n    // Events - publicize actions to external listeners\n    event LienReleased(address _owner);\n    event LienTrasferred (address _owner);\n    event LoanStatus (int _status);\n\n    // address of the loanApplicant\n    address loanApplicant;\n\n    // store the property details\n    struct Property {\n      bytes32  addressOfProperty;\n      uint32 purchasePrice;\n      address owner;\n    }\n\n    // store the loan terms\n    struct LoanTerms{\n      uint32 term;\n      uint32 interest;\n      uint32 loanAmount;\n      uint32 annualTax;\n      uint32 annualInsurance;\n    }\n\n    // struct datatype to store the monthly payment structure\n    struct MonthlyPayment{\n        uint32 pi;\n        uint32 tax;\n        uint32 insurance;\n    }\n\n    // store the details of the loan contract */\n    struct Loan {\n        LoanTerms loanTerms;\n        Property property;\n        MonthlyPayment monthlyPayment;\n        ActorAccounts actorAccounts;\n        int status; // values: REJECTED, SUBMITTED, APPROVED,\n    }\n\n\n    // names of the nodes that would be present on the blockchain\n    struct ActorAccounts {\n      address mortgageHolder;\n      address insurer;\n      address irs;\n    }\n\n    // name instances of our structs\n    Loan loan;\n    LoanTerms loanTerms;\n    Property property;\n    MonthlyPayment monthlyPayment;\n    ActorAccounts actorAccounts;\n\n    //FUNCTIONS DEFINED BELOW\n\n    function Mortgage() public{\n        loanApplicant = msg.sender;\n        loan.status = STATUS_INITIATED;\n        balances[msg.sender] = 100000000000000000000000;\n    }\n\n    /* Deposit money to actors account and modify the balance  */\n    function deposit(address receiver, uint amount) public returns(uint256){\n        if (balances[msg.sender] < amount) return 0;\n        balances[msg.sender] -= amount;\n        balances[receiver] += amount;\n        //checkMortgagePayoff(); // need to define this function\n        return balances[receiver];\n    }\n\n    // check if mortgage payment if complete, if complete, then release the property lien to the homeowner\n\n    function checkMortgagePayoff() public{\n        if(balances[loan.actorAccounts.mortgageHolder]\n                ==loan.monthlyPayment.pi*12*loan.loanTerms.term &&\n            balances[loan.actorAccounts.insurer]\n                ==loan.monthlyPayment.tax*12*loan.loanTerms.term &&\n            balances[loan.actorAccounts.irs]\n                ==loan.monthlyPayment.insurance*12*loan.loanTerms.term\n        ){\n            loan.property.owner = loanApplicant;\n            emit LienReleased (loan.property.owner);\n        }\n    }\n\n    // Add loan details into the contract\n    function submitLoan(\n            bytes32 _addressOfProperty,\n            uint32 _purchasePrice,\n            uint32 _term,\n            uint32 _interest,\n            uint32 _loanAmount,\n            uint32 _annualTax,\n            uint32 _annualInsurance,\n            uint32 _monthlyPi,\n            uint32 _monthlyTax,\n            uint32 _monthlyInsurance,\n            address _mortgageHolder,\n            address _insurer,\n            address _irs\n    ) public{\n        loan.property.addressOfProperty = _addressOfProperty;\n        loan.property.purchasePrice = _purchasePrice;\n        loan.loanTerms.term=_term;\n        loan.loanTerms.interest=_interest;\n        loan.loanTerms.loanAmount=_loanAmount;\n        loan.loanTerms.annualTax=_annualTax;\n        loan.loanTerms.annualInsurance=_annualInsurance;\n        loan.monthlyPayment.pi=_monthlyPi;\n        loan.monthlyPayment.tax=_monthlyTax;\n        loan.monthlyPayment.insurance=_monthlyInsurance;\n        loan.actorAccounts.mortgageHolder = _mortgageHolder;\n        loan.actorAccounts.insurer = _insurer;\n        loan.actorAccounts.irs = _irs;\n        loan.status = STATUS_SUBMITTED;\n    }\n\n    // Gets loan details from the contract\n    function getLoanData() public view returns(\n            bytes32 _addressOfProperty,\n            uint32 _purchasePrice,\n            uint32 _term,\n            uint32 _interest,\n            uint32 _loanAmount,\n            uint32 _annualTax,\n            uint32 _annualInsurance,\n            int _status,\n            uint32 _monthlyPi,\n            uint32 _monthlyTax,\n            uint32 _monthlyInsurance) {\n        _addressOfProperty = loan.property.addressOfProperty;\n        _purchasePrice=loan.property.purchasePrice;\n        _term=loan.loanTerms.term;\n        _interest=loan.loanTerms.interest;\n        _loanAmount=loan.loanTerms.loanAmount;\n        _annualTax=loan.loanTerms.annualTax;\n        _annualInsurance=loan.loanTerms.annualInsurance;\n        _monthlyPi=loan.monthlyPayment.pi;\n        _monthlyTax=loan.monthlyPayment.tax;\n        _monthlyInsurance=loan.monthlyPayment.insurance;\n        _status = loan.status;\n    }\n\n    // Approve or reject loan\n    function approveRejectLoan(int _status) bankOnly public{\n        //if(msg.sender == loanApplicant) throw;\n        loan.status = _status ;\n        /* if status is approved, transfer the lien of the property\n        to the mortgage holder */\n        if(_status == STATUS_APPROVED)\n        {\n            loan.property.owner  = msg.sender;\n            emit LienTrasferred(loan.property.owner);\n        }\n        emit LoanStatus(loan.status);\n    }\n\n    // CONDUCTING MAPPING now\n\n    // Maps addresses of the actors in the mortgage contract with their balances\n\n    mapping (address => uint256) public balances;\n\n    /* Function called by mortgageHolder */\n    modifier bankOnly {\n      if(msg.sender != loan.actorAccounts.mortgageHolder) {\n         revert(\"lol\");\n      }\n      _;\n   }\n}\n",
  "sourcePath": "/Users/Tarun/Code/Spark/Blockchain/DApp/contracts/mortgage.sol",
  "compiler": {
    "name": "solc",
    "version": "0.5.0+commit.1d4f565a.Emscripten.clang"
  },
  "schemaVersion": "3.0.2",
  "updatedAt": "2019-02-23T22:43:39.587Z",
  "devdoc": {
    "methods": {}
  },
  "userdoc": {
    "methods": {}
  }
}